:020000040800F2
:10000000D81A00205D020008031F0008EF1D000839
:10001000011F00088D030008A9230008000000004C
:100020000000000000000000000000009D0100082A
:100030000B04000800000000F90100080D1F000873
:1000400077020008770200087702000877020008AC
:10005000770200087702000877020008770200089C
:10006000770200087702000877020008770200088C
:100070007702000877020008A9030008B50300080A
:100080007702000877020008770200089D03000845
:100090009103000877020008770200087702000841
:1000A000770200087702000877020008770200084C
:1000B000B51F000877020008000000007702000862
:1000C000770200080000000000000000770200082E
:1000D000000000009D230008770200087702000856
:1000E000770200087702000800000000000000000E
:1000F0000000000000000000000000000000000000
:1001000000000000000000000000000000000000EF
:1001100000000000000000007702000877020008DD
:1001200000000000000000000000000000000000CF
:1001300000000000000000000000000000000000BF
:10014000770200087702000800000000770200082C
:10015000770200087702000877020008770200089B
:10016000770200087702000800000000000000008D
:10017000000000000000000000000000000000007F
:100180000000000077020008DFF80CD000F0ECF867
:10019000004800477D240008D81A00202C4B19681D
:1001A0000868B0E8F04F80F30988BFF36F8F4FF015
:1001B000000080F3118870470000000008480068C4
:1001C000006880F308884FF0000080F3148862B65E
:1001D00061B6BFF34F8FBFF36F8F00DF00BF00BF6B
:1001E00008ED00E0DFF80C00016841F470010160E7
:1001F000704700BF88ED00E0EFF30980BFF36F8F19
:10020000134B1A681EF0100F08BF20ED108A20E96A
:10021000F04F106009B44FF0500080F31188BFF325
:100220004F8FBFF36F8F02F0C3FC4FF0000080F3DD
:10023000118809BC19680868B0E8F04F1EF0100F6B
:1002400008BFB0EC108A80F30988BFF36F8F704746
:1002500014000020EFF30580704700000648804737
:1002600006480047FEE7FEE7FEE7FEE7FEE7FEE79B
:10027000FEE7FEE7FEE7FEE7991F00088901000898
:100280002DE9F05F0546002092469B4688460646CB
:10029000814640241BE0284641464746224600F05E
:1002A00020F853465A46C01A914110D311461846B9
:1002B000224600F04AF82D1A67EB01084F46224605
:1002C0000120002100F041F817EB00094E41201EEB
:1002D000A4F10104DFDC484631462A464346BDE826
:1002E000F09F202A04DB203A21FA02F00021704717
:1002F00021FA02F3D040C2F120029140084319468E
:10030000704740EA01039B0703D009E008C9121FA8
:1003100008C0042AFAD203E011F8013B00F8013BBF
:10032000521EF9D27047D2B201E000F8012B491EEB
:10033000FBD270470022F6E710B513460A46044682
:100340001946FFF7F0FF204610BD202A04DB203AB3
:1003500000FA02F1002070479140C2F1200320FA18
:1003600003F3194390407047064C074D06E0E068E0
:1003700040F0010394E8070098471034AC42F6D3EC
:10038000FFF706FF9C2F0008BC2F0008FEE70000C7
:10039000014800F03BB9000074000020014800F063
:1003A00035B9000074000020014800F0E1BB0000F6
:1003B000F4030020014800F0DBBB0000B003002084
:1003C000054A016811441422B1FBF2F1890001646D
:1003D0000249C16370470000F8FFFDBF0000024002
:1003E00030B590F840500124AC40C56B6C60046897
:1003F00063604368102B036803D099600068C26093
:1004000030BD9A600068C16030BD7047704790F899
:100410002020012A07D0022A05D0416A41F4802118
:10042000416201207047006842690A43426100202E
:100430007047000010B590F820300268012B07D0FB
:10044000022B05D0416A41F480214162012010BD98
:10045000D2F8000240F00100C2F80002087D00F06E
:100460001F0301209840D2F81C328343C2F81C328B
:10047000CB69B3B9D2F80C328343C2F80C328C8901
:100480004B6864F31F434C6902EBC404C4F8403268
:100490000C890B6864F31F434C6902EBC404C4F875
:1004A0004432CB69012B16D1D2F80C320343C2F887
:1004B0000C320C884B6864F31F434C6902EBC40494
:1004C000C4F840320C89CB6864F31F434C6902EBDB
:1004D000C404C4F844328B69002BD2F804320FD024
:1004E00053EA0003C2F804320B69002BD2F814322D
:1004F00008D00343C2F81432096A012904D008E085
:100500008343EFE78343F5E7D2F81C120143C2F8B7
:100510001C12D2F8000220F00100C2F800020020F4
:1005200010BD704730B590F82040012C05D0022C4A
:1005300003D0416A41F480215DE00468002955D070
:100540002469A40754D04FF4D874056804EB01144F
:100550002D5915F00405956005682D594ED0ED080C
:10056000556005682C5904F00204D4604FF4DA7425
:10057000056804EB01142D5905F00F051561056898
:100580002D59C5F30725956105682C59240C546134
:100590004FF4DC72046802EB0112A4581C7004686A
:1005A000A458240A5C700468A458240C9C70046845
:1005B000A258120EDA704FF4DE72046802EB0112D8
:1005C000A4581C710468A458240A5C710468A458D7
:1005D000240C9C710468A258120EDA71006881B173
:1005E000016941F020010161002030BDE468A8E705
:1005F000416A41F400114162012030BD6D0D15606A
:10060000AFE7C16841F02001C160EDE72DE9F05F7F
:100610000546006800244669D0F804908768D0F841
:100620000CB0D0F810A0D0F81880F10748D0F90726
:1006300014D001218160B80703D5284600F06DFA77
:100640000CE0780702D54FF4006407E0380702D5C4
:100650004FF4805402E0284600F05EFAF80516D503
:1006600029684FF480708860B80503D5284600F0EB
:1006700056FA0CE0780502D544F4005407E038053A
:1006800002D544F4804402E0284600F047FAF8031B
:1006900016D529684FF480308860B80303D5284602
:1006A00000F03FFA0CE0780302D544F4004407E080
:1006B000380302D544F4803402E0284600F030FAD2
:1006C000300707D55FEACB6004D52968102044F4D1
:1006D0000074C86070074FF0080707D55FEA0B7019
:1006E00004D52868C760284600F05EF9B00706D533
:1006F0002868C068800702D0284600F057F97006C5
:1007000007D55FEACA6004D52968102044F48064E4
:100710000861B00607D55FEA0A7004D5286807614A
:10072000284600F0C9F9F00606D528680069800758
:1007300002D0284600F0C1F9B00308D55FEAC960CD
:1007400005D5296810204860284600F0B7F9F00365
:1007500007D55FEA097004D528684760284600F08D
:10076000E1F9300446D55FEA497040D5F00504D57B
:100770005FEAC87001D044F00104B00504D55FEA17
:10078000887001D544F00204700504D55FEA487012
:1007900001D544F00404300529D518F0700F26D097
:1007A00008F07000402815D006DC102809D0202859
:1007B0000AD0302816D10AE050280ED0602811D176
:1007C0000EE044F008040DE044F010040AE044F0A8
:1007D000200407E044F0400404E044F0800401E019
:1007E00044F480742868816921F07001816129686E
:1007F00004204860002C05D0686A204368622846BF
:10080000FFF78FFEBDE8F09F70B5040003D094F8A9
:10081000200010B104E0012070BD204600F082F8F5
:100820002068016821F00201016000F005FB054627
:10083000052604E000F000FB401B0A2811D82068C0
:1008400040688007F6D42068016841F0010101602A
:1008500000F0F2FA05460BE000F0EEFA401B0A2821
:1008600006D9606A40F40030606284F82060D2E704
:1008700020684068C007EFD0207E0128206801680A
:100880003DD021F080010160607E01282068016870
:1008900038D021F040010160A07E01282068016865
:1008A00033D021F020010160E07E0128206801683A
:1008B0002ED041F010010160207F012820680168DE
:1008C00029D021F008010160607F012820680168BB
:1008D00024D021F004010160D4E902010843D4E9E5
:1008E0000412114308436168491E08432168C86126
:1008F00000206062012084F82000002070BD41F0DB
:100900008001C0E741F04001C5E741F02001CAE79E
:1009100021F01001CFE741F00801D4E741F00401D4
:10092000D9E7000010B586B0044614216846FFF7E9
:1009300001FD1B49206888422FD11A48C16941F046
:100940000071C161C16901F000710591416941F413
:10095000003141614069694600F4003005904FF470
:10096000C0500090022001900020029003200390CC
:1009700009200490C00600F09FF9002205211320F1
:1009800000F0DCFA132000F0CBFA0022052114203D
:1009900000F0D4FA142000F0C3FA06B010BD000035
:1009A0000064004000100240704700002DE9F04351
:1009B0003F4A016889B0914204D107AB6A460021E1
:1009C000FFF7B0FD00993B484FF48058A1F2012198
:1009D000C8F10009A0F1640704292ED2C9B201EBC5
:1009E000810100EB810507EB810414222146284692
:1009F000FFF787FCBDF81C0040BAE080BDF81E1070
:100A000049BA2181BDF8201049BA61819DF82210B0
:100A10002173B5F90E10E181C1EB4132024422612C
:100A2000EA88801A404501DD491E02E0484501DAA6
:100A3000491CE18109B0BDE8F083009AA2F20522C9
:100A4000042AF7D2C9B201EB810607EB860400EB5A
:100A50008605284614222146FFF753FCBDF81C00EA
:100A600042BAE280BDF81E0040BA2081BDF82000E5
:100A700040BA60819DF822002073B5F90E00E08134
:100A8000C0EB40311144216117F82610012903D031
:100A9000012007F82600CDE7E988511A414501DD1C
:100AA000401E02E04945C5DA401CE081C2E7000073
:100AB00000640040F0150020704770477047000048
:100AC00070B5044690F82000012804D0606A40F414
:100AD0000020606218E0022084F82000206801688D
:100AE00021F00101016000F0A7F905460EE000BF0A
:100AF00000F0A2F9401B0A2808D9606A40F40030CF
:100B00006062052084F82000012070BD20684068E4
:100B1000C007EDD1606270BD704770477047704785
:100B200070477047704710B590F8211000240229D3
:100B300003D004218163012418E001680A6822F0CF
:100B40000E020A6001680A6822F001020A6090F849
:100B50004020C36B012101FA02F25A6080F8211093
:100B6000002180F82010416B01B18847204610BD5C
:100B7000F0B4C16B0D6801680C68066C042202FABF
:100B800006F32B420FD063070DD50B689B0603D4E9
:100B90000B6823F004030B6090F840108A40C16B8F
:100BA0004A60C16A1BE0022303FA06F72F424FF0A6
:100BB000000C4FF0010216D0A70714D50C68A4064C
:100BC00005D40C6824F00A040C6080F8212090F809
:100BD00040108B40C16B4B6080F820C0816A0029B7
:100BE00018D0F0BC08470823B3402B4212D023078B
:100BF00010D50B6823F00E030B6090F84010C36B08
:100C000002FA01F15960826380F8212080F820C047
:100C1000016BE4E7F0BC704770B5040021D00220FE
:100C200084F821002268116843F6F0708143D4E90A
:100C300001031843D4E903352B4318436369184370
:100C4000A3691843E3691843084310602046FFF77F
:100C5000B7FB0020A063012184F8211084F8200054
:100C600070BD012070BD70B5044690F820000025CD
:100C700001280CD0012084F8200094F82160002085
:100C8000012E06D084F820000225284670BD0220DF
:100C900070BD022684F82160A0632068066826F0F3
:100CA000010606602046FFF79BFB2068016841F0C3
:100CB00001010160E9E700002DE9F84FDFF860B1BC
:100CC00000234FF0010C4FF0030A4FF00F090BF116
:100CD000040E9DE00CFA03F6344022007ED04C68EE
:100CE000022C01D0122C0ED1DC0800EB8408D8F8BD
:100CF00020405D07EF0E09FA07F5AC430D69BD40D2
:100D00002543C8F8205007685D0091F804800AFA6E
:100D100005F408F00308A74308FA05F848EA0708AD
:100D2000C0F800804F68012F05D0022F03D0112F8B
:100D300001D0122F11D18768D1F80C80A74308FA8F
:100D400005F848EA0708C0F808804768B7430E79F5
:100D5000C6F300169E403E434660C668A6438C68B4
:100D6000AC403443C4604C68E40050D52D4CA569B8
:100D700045F00105A561A46923F0030504F0010411
:100D80000094294C2E19B4689D072F0F09FA07F516
:100D9000AC43B0F1904F04D0244DA84203D10125BB
:100DA0000CE000250AE0224DA84201D1022505E011
:100DB000204DA84201D1032500E00525BD40254373
:100DC000B560DBF800405D464E689443F60300D5FD
:100DD00014432C607546DEF8004000E017E04E68D2
:100DE0009443B60300D514432C600D4D08352C6890
:100DF0004E689443F60200D514432C60084D0C3520
:100E00002C684E689443B60200D514432C605B1CDA
:100E10000A681446DA407FF45DAFBDE8F88F000041
:100E2000000401400010024000000140000400489E
:100E300000080048000C0048014880687047000026
:100E400004000020024881680278114481607047E4
:100E500004000020074810B5016841F0100101604E
:100E6000032000F08BF8002000F006F800F03EF8B8
:100E7000002010BD0020024000B5014687B00022CE
:100E80001C2000F05BF81C2000F04AF81448C169EF
:100E900041F00101C161C06905A900F0010006909F
:100EA000684600F0E5F900F003FA0E494000B0FB97
:100EB000F1F10D484FF08042491E0260416040F25E
:100EC000E7320021C0E90321816000F03EFD10B14E
:100ED000012007B000BD044800F054FDF9E7000010
:100EE0000010024040420F00F00200200B4882B088
:100EF000816941F001018161816901F00101009185
:100F0000C16941F08051C161C069002200F0805088
:100F100000900F21901E02B000F010B800100240A7
:100F2000002809DB00F01F020121914040098000E8
:100F300000F1E020C0F8001170470000F0B40E4B43
:100F40001B680C46C3F30223C3F10705042D00D927
:100F50000425191D072901D2002300E0DB1E01260C
:100F600006FA05F1491E214099409E40761E164022
:100F70003143F0BC01F019BA0CED00E0064900F075
:100F8000070208684FF6FF03184040EA0220034AB0
:100F900010430860704700000CED00E00000FA0507
:100FA0002DE9F84F044600685C4DC0036FD5E86931
:100FB0000026C00008D4E86940F08050E861E86984
:100FC000012600F08050009055480168C90512D4F0
:100FD0000168804641F480710160FFF72DFF0746EC
:100FE00005E000BFFFF728FFC01B642835D8D8F8FC
:100FF0000000C005F6D5286A10F4407053D0A188CF
:1010000001F4407181424ED0286A4FF4803191FA48
:10101000A1F2B2FA82F29700424A4FF00108174457
:1010200020F44070C7F8008491FAA1F1B1FA81F17F
:1010300002EB81010023C1F800342862C00732D0DE
:10104000FFF7FAFE074641F2883A4FF0020907E03F
:10105000FFF7F2FEC11B514502D90320BDE8F88F0E
:1010600099FAA9F1B1FA81F141F040014846B8EB93
:10107000511F01D129680CE090FAA0F1B1FA81F179
:1010800041F04001B0EB511F02D1296A01E015E0A7
:10109000696A99FAA9F0B0FA80F000F01F0008FA26
:1010A00000F21142D4D0286A616820F440700843ED
:1010B00028621EB1E86920F08050E8612078C007FE
:1010C00005D0286BA16820F003000843286320782E
:1010D000800605D5286BE16820F0100008432863DE
:1010E0002078000605D5E86A216920F4F8700843E5
:1010F000E8622088C00405D5286B616920F48070FF
:10110000084328632088400405D5286BA16920F492
:101110008050084328630020A0E700000010024030
:1011200000700040000042422DE9F0470F460500E4
:1011300069D04A4E306800F00700B84209D23068E2
:1011400020F0070038433060306800F00700B842F4
:1011500059D12878424C800705D56068A96820F0ED
:10116000F000084360602878C0073DD0696801201E
:1011700001290DD0022923D05FF0020393FAA3F2D4
:10118000B2FA82F242F02002520904D0226803E04F
:101190004FF40033F2E7626A93FAA3F3B3FA83F3EE
:1011A00003F01F03984002422DD0606820F0030036
:1011B00008436060FFF740FE804641F288390CE04A
:1011C0004FF00073DAE700BFFFF736FEA0EB08012F
:1011D000494502D90320BDE8F0876068696800F0DE
:1011E0000C00B0EB810FEFD1306800F00700B8427F
:1011F0000BD9306820F0070038433060306800F0C9
:101200000700B84201D00120E5E72878400705D55E
:101210006068E96820F4E0600843606028780007AF
:1012200006D56068296920F4605040EAC10060601A
:1012300000F06EF86168F02292FAA2F201F0F0017B
:10124000B2FA82F2D140074A515CC84006490860B0
:1012500006480068FFF710FE0020BCE700200240AF
:1012600000100240782F0008100000200800002025
:101270000F2202600C4A536803F003034360536873
:1012800003F0F0038360536803F4E063C3605268C3
:101290004FF4E06303EAD20202610448006800F000
:1012A0000700086070470000001002400020024064
:1012B00008480949006849684FF4E06292FAA2F2CE
:1012C00001F4E061B2FA82F2D140044A515CC840B4
:1012D000704700001000002000100240882F000816
:1012E00008480949006849684FF4605292FAA2F22E
:1012F00001F46051B2FA82F2D140044A515CC84014
:10130000704700001000002000100240882F0008E5
:10131000164A10B55168164801F00C03042B20D072
:10132000082B1ED14FF4701494FAA4F401F4701336
:10133000B4FA84F4E3400F4CD26AE45C0F2393FACE
:10134000A3F302F00F02B3FA83F3DA40094B103330
:10135000C9039A5C06D500231946FEF791FFA0FB4E
:10136000040110BD0448A4FB000110BD00100240A0
:1013700000127A00582F000800093D002DE9F84FAF
:10138000050071D02878FC4EC0074FF0010425D02D
:1013900070686704C0F38100012807D07068C0F34B
:1013A000810002281BD17068C00318D597FAA7F0F6
:1013B000B0FA80F040F02000400901D0306800E031
:1013C000706A97FAA7F1B1FA81F101F01F0104FAEE
:1013D00001F1084265D068680028D2D061E06868F1
:1013E000B0F5803F0BD010B1B0F5A02F17D030680A
:1013F00020F480303060306820F4802002E03068D3
:1014000040F480303060F06AA96820F00F00084393
:10141000F062686820B3FFF70FFD80460AE030688D
:1014200040F480203060EAE7FFF706FDA0EB0800FB
:10143000642871D897FAA7F0B0FA80F040F0200045
:10144000400901D0306800E0706A97FAA7F1B1FA5C
:1014500081F101F01F0104FA01F10842E4D020E01B
:10146000FFF7EAFC804607E0C2E000BFFFF7E4FCBC
:10147000A0EB08006428DCD897FAA7F0B0FA80F057
:1014800040F02000400901D0306800E0706A97FA0F
:10149000A7F1B1FA81F101F01F0104FA01F108424C
:1014A000E4D12878DFF8D48280074FF0000A4FF0AB
:1014B000020730D570684FF0F80B10F00C0F07D012
:1014C0007068C0F38100022827D17068C00324D45B
:1014D00097FAA7F0B0FA80F040F02000400901D060
:1014E000306800E0706A97FAA7F1B1FA81F101F073
:1014F0001F0104FA01F1084202D02869012877D1BE
:1015000030689BFAABF220F0F8016869B2FA82F217
:101510009040014331605AE064E1286988B394FA4D
:10152000A4F0B0FA80F048F82040FFF785FC81462F
:1015300006E000BFFFF780FCA0EB090002289AD864
:1015400097FAA7F0B0FA80F040F02000400901D0EF
:10155000306800E0706A97FAA7F1B1FA81F101F002
:101560001F0104FA01F10842E4D030689BFAABF2A3
:101570006969B2FA82F220F0F800914008433060C5
:1015800025E0FFE794FAA4F0B0FA80F048F820A034
:10159000FFF752FC814605E0FFF74EFCA0EB090087
:1015A0000228CCD897FAA7F0B0FA80F040F02000DB
:1015B000400901D0306800E0706A97FAA7F1B1FAEB
:1015C00081F101F01F0104FA01F10842E4D1287809
:1015D00000076CD5A869A8B394FAA4F0B0FA80F01B
:1015E00008EB8000C0F88044FFF726FC814607E046
:1015F000A4E100BFFFF720FCA0EB090002289ED861
:1016000097FAA7F0B0FA80F040F06000B4EB501FFA
:1016100001D130680BE097FAA7F0B0FA80F040F003
:101620006000B7EB501F01D1306A00E0706A97FA92
:10163000A7F1B1FA81F101F01F0104FA01F21042A1
:10164000D8D034E0FFE794FAA4F1B1FA81F108EBC5
:101650008101C1F880A4FFF7EFFB814606E000BFDF
:10166000FFF7EAFBA0EB090002289AD897FAA7F047
:10167000B0FA80F040F06000B4EB501F01D1306848
:101680000BE097FAA7F0B0FA80F040F06000B7EBFB
:10169000501F01D1306A00E0706A97FAA7F1B1FAE1
:1016A00081F101F01F0104FA01F21042D8D128782B
:1016B000400768D5F0694FF00009C00009D4F0690F
:1016C00040F08050F061F0694FF0010900F0805067
:1016D00000902B480168C90512D4016841F480715B
:1016E0000160FFF7A9FB834606E000BFFFF7A4FBFC
:1016F000A0EB0B00642875D821480068C005F5D51B
:10170000E86801280AD008B1052811D0306A20F015
:1017100001003062306A20F0040002E0306A40F0DC
:1017200001003062E86868B3FFF786FB83460DE08E
:10173000306A40F004003062F0E700BFFFF77CFB46
:10174000A0EB0B0141F2883081424BD897FAA7F009
:10175000B0FA80F040F04000B4EB501F01D1306887
:1017600013E097FAA7F0B0FA80F040F04000B7EB32
:10177000501F09D1306A08E00010024000004242C8
:10178000007000400CE040E0706A97FAA7F1B1FAEF
:1017900081F101F01F0104FA01F21042CED02DE0D8
:1017A000FFF74AFB834607E0FFF746FBA0EB0B0180
:1017B00041F28830814215D897FAA7F0B0FA80F04C
:1017C00040F04000B4EB501F01D130680CE097FAB4
:1017D000A7F0B0FA80F040F04000B7EB501F02D104
:1017E000306A01E083E0706A97FAA7F1B1FA81F1FB
:1017F00001F01F0104FA01F21042D5D1B9F1000F36
:1018000003D0F06920F08050F061E86980B371681E
:10181000C1F38101022977D04FF080714F00022877
:10182000504609D091FAA1F1B1FA81F148F82100AE
:10183000FFF702FB05465DE0894691FAA1F1B1FA96
:1018400081F1C24648F82100FFF7F6FA804605E02C
:10185000FFF7F2FAA0EB0800022848D897FAA7F0A1
:10186000B0FA80F040F02000400902D0306801E07A
:1018700066E0706A97FAA7F1B1FA81F101F01F01F1
:1018800004FA01F10842E3D1D5E908100843716870
:1018900021F474110843706099FAA9F0B0FA80F04D
:1018A0004AF82040FFF7C8FA054604E0FFF7C4FAFB
:1018B000401B02281BD897FAA7F0B0FA80F040F03E
:1018C0002000400901D0306800E0706A97FAA7F163
:1018D000B1FA81F101F01F0104FA01F10842E5D0EB
:1018E0002EE000BFFFF7A8FA401B022802D9032010
:1018F000BDE8F88F97FAA7F0B0FA80F040F020002A
:10190000400902D0306801E00BE0706A97FAA7F155
:10191000B1FA81F101F01F0104FA01F10842E1D1AD
:101920000EE00128E4D070682A6A00F48031914208
:1019300004D1696A00F47010884201D00120D7E711
:101940000020D5E770477047704710B5040003D0FA
:1019500094F83D0010B107E0012010BD002084F88C
:101960003C00204600F00CF8022084F83D00211DC8
:10197000206800F025FB012084F83D00002010BD08
:10198000704700000168CA6842F00102CA6001683D
:101990008868064A1040062806D0B0F5803F03D07C
:1019A000086840F00100086000207047070001004F
:1019B000704770B50446006801694FF00005C943DF
:1019C000890715D4C168C943890711D4E91E01618B
:1019D00001202077206880698007204602D0FFF729
:1019E000E7FF04E000F0A7F8204600F0A5F825770F
:1019F00020680169C943490717D4C168C943490729
:101A000013D46FF0040101610220207720688069FF
:101A100010F4407F204602D0FFF7CAFF04E000F038
:101A20008AF8204600F088F8257720680169C943C4
:101A3000090716D4C168C943090712D46FF0080119
:101A40000161042020772068C0698007204602D009
:101A5000FFF7AEFF04E000F06EF8204600F06CF8EF
:101A6000257720680169C943C90617D4C168C943ED
:101A7000C90613D46FF01001016108202077206897
:101A8000C06910F4407F204602D0FFF791FF04E0C8
:101A900000F051F8204600F04FF8257720680169E2
:101AA000C943C90708D1C168C943C90704D1891E00
:101AB0000161204600F041F820680169C943090628
:101AC00009D4C168C943090605D46FF080010161DA
:101AD0002046FFF738FF20680169C943C90509D4CA
:101AE000C168C943090605D46FF4807101612046BD
:101AF000FFF728FF20680169C943490609D4C16876
:101B0000C943490605D46FF040010161204600F049
:101B10001BF820680169C94389060BD4C168C94311
:101B2000890607D46FF0200101612046BDE87040AE
:101B3000FFF70ABF70BD704770470068B0F1804F73
:101B400001D1FFF77FB970477047704770470000B9
:101B50002DE9F04102680446D0691168936840F6A7
:101B60000F0528424FF0000505D186067BD58E066D
:101B700079D5216E88E003F0010601F490773743B0
:101B800071D0C70707D0CF0505D501271762E26FCF
:101B900042F00102E267820708D5DA0706D027681B
:101BA00002223A62E26F42F00402E267420708D57D
:101BB000DA0706D0236804221A62E26F42F00202BA
:101BC000E26702070AD501F02002324306D02368FB
:101BD00008221A62E26F42F00802E267020509D5A4
:101BE0004A0107D523684FF400621A62E26F42F09F
:101BF0002002E267E26F002A2ED0800605D5880613
:101C000003D5216E09B120468847E06F21688968B5
:101C1000490602D410F0280F20D0204600F0AEFA7A
:101C200020688168490614D5816821F040018160EF
:101C3000E06E70B11D494163E06EFEF774FF00284D
:101C40000AD0E06E416B00E02046BDE8F041084755
:101C500009E02046FFF77AFFBDE8F0812046FFF754
:101C600075FFE567F8E7C60209D55B0207D54FF4B3
:101C7000801010622046BDE8F041FFF766BF030602
:101C800005D50B0603D5616E0029DDD1E4E74006DA
:101C9000E2D54806E0D51168204621F040011160E8
:101CA00020216167656600F0A1F8D5E76921000889
:101CB00010B5040002D0606F10B107E0012010BD24
:101CC000002084F87000204600F026F82420606789
:101CD0002068016821F001010160204600F05EFAF1
:101CE0000128ECD0606A10B1204600F0ADF9206800
:101CF000416821F4904141602068816821F02A0107
:101D000081602068016841F0010101602046BDE862
:101D1000104000F0FDB900002DE9F04186B0064604
:101D200014216846FEF706FB2C493068884252D1E0
:101D30002B48816941F480418161816901F48041CE
:101D40000591416941F4003141614069002400F48A
:101D5000003005904FF4C06000900220CDE90104EE
:101D6000032003900720049069464FF09040FEF74F
:101D7000A3FF1D4D1B488027C5E90004C5E90247A4
:101D80004FF020082C61C5E905482846EC61FEF7B4
:101D900043FF08B1FEF73AFBF5666E62124D11483B
:101DA0004435143801C5102091C50F4845F8104935
:101DB0004430C5E90548EC61FEF72EFF08B1FEF797
:101DC00025FBB5660022052125206E62FFF7B6F8D7
:101DD0002520FFF7A5F806B0BDE8F08100380140E6
:101DE0000010024058000240B00300207047FEE798
:101DF0000F4810B50D4901600421416000214FF4E6
:101E000000328160C0E903125201426101764176DD
:101E10008176C17601774177FEF7F6FC002803D082
:101E2000BDE81040FEF7F2BA10BD000000640040AB
:101E3000740000200D4808B5416941F0010141617D
:101E40004069002200F00100009005210E20FFF7FC
:101E500075F80E20FFF764F8002205210F20FFF728
:101E60006DF8BDE808400F20FFF75AB80010024097
:101E700000B587B01C2206496846FEF742FA0021E9
:101E8000684600F020FB0349086007B000BD000071
:101E90003C2F000800000020094808B5416941F4C2
:101EA00080014161416901F480010091416941F47F
:101EB00000314161406900F40030009008BD00002D
:101EC000001002400D4810B50B4901604FF4E1319C
:101ED0004160002181600C22C160C0E9041281616F
:101EE000C16101624162FFF7E3FE002803D0BDE853
:101EF0001040FEF78BBA10BD0038014030030020BF
:101F0000FEE77047012000F0D2FAFBE710B5502041
:101F100080F31188BFF34F8FBFF36F8F00F048FF3E
:101F200018B104494FF080500860002080F31188F8
:101F300010BD000004ED00E070B596B028216846A1
:101F4000FEF7F8F914210AA8FEF7F4F91C210FA8EE
:101F5000FEF7F0F901252804CDE900500024029491
:101F600002260495CDE907604FF4E0100990684619
:101F7000FFF704FA0F20CDE90A06A802CDE90C40CC
:101F800002210AA80E94FFF7CFF80FA80F9511941D
:101F9000FFF706F816B070BD0548016841F47001FE
:101FA000016003494FF0006080390860704700000D
:101FB00088ED00E00148FFF7FCBC0000F0020020C3
:101FC000F0B502681B4B1C4F4FF0804C984203D079
:101FD000604501D0B84203D122F070044A68224320
:101FE000164C174D174E984209D0604507D0B8429D
:101FF00005D0A04203D0A84201D0B04203D122F4C0
:102000004077CA683A434F6922F080023A4302603F
:102010008A68C2620A688262984205D0A04203D0F0
:10202000A84201D0B04201D1096901630121416197
:10203000F0BD0000002C01400004004000400140C1
:10204000004401400048014090F82410C90706D020
:1020500001684A68836A22F400321A434A6090F8A1
:102060002410890706D501684A68C36A22F48032C1
:102070001A434A6090F82410490706D501684A6857
:10208000036B22F480221A434A6090F82410090757
:1020900006D501684A68436B22F400421A434A603D
:1020A00090F82410C90606D501688A68836B22F46B
:1020B00080521A438A6090F82410890606D5016878
:1020C0008A68C36B22F400521A438A6090F8241085
:1020D000490611D501684A68036C22F480121A433C
:1020E0004A60016CB1F5801F06D101684A68436CF3
:1020F00022F4C0021A434A6090F82410090606D55B
:1021000001684A68806C22F4002202434A607047EA
:10211000F8B500260446C667FEF78EFE0546206821
:1021200000686FF07E47000708D52B4600224FF469
:1021300000112046009700F0DFF860B920680068C1
:1021400040070AD52B4600224FF480012046009715
:1021500000F0D2F808B10320F8BD20206067A06726
:1021600084F870600020F8BD10B5406A0021A0F826
:102170005A10A0F85210FFF7E9FC10BD01680A6878
:1021800022F490720A6001688A6822F001028A6073
:1021900020218167002101667047000070B5044668
:1021A00080682169E269084361690025114322685A
:1021B00008431168494B1940014311602068416888
:1021C000E26821F4405111434160A169206A08434B
:1021D00021688A6822F4306202438A60404920689C
:1021E000884210D13F48006B10F0030014D0012842
:1021F00005D0022805D003280DD102200CE00420D0
:102200000AE0082008E03849884202D0374988426D
:1022100001D1002000E01020E2694FF400414FF6A8
:10222000EF768A422CD1092851D2DFE800F0050868
:102230001F50225050502500FFF73AF801E0FFF7F9
:102240004FF84100D4F8040001EB5001B1FBF0F06D
:1022500080B2A0F11001B14239D84FF6F0710140BF
:10226000C0F3420001432068C16031E0204960684A
:10227000EAE7FFF74DF8E4E74FF480316068E3E701
:10228000092824D2DFE800F0050817231A232323A6
:102290001D00FFF70DF801E0FFF722F8616800EB81
:1022A0005100B0FBF1F080B2A0F11001B1420ED8A4
:1022B0002168C8600CE00F49606803E0FFF728F868
:1022C000ECE7606801EB5001B1FBF0F0EBE70125B2
:1022D000002020666066284670BD0000F369FFEFAD
:1022E0000038014000100240004400400048004017
:1022F0000024F40000127A002DE9F0479A461746B0
:102300000E4604464FF000094FF02008089D39E0C2
:10231000681C37D0FEF790FDA0EB0A00A84222D837
:102320000DB32068016849072CD5C069C04300057A
:1023300028D421684FF4006008622068016821F405
:10234000D07101602068816821F001018160C4F8CA
:102350007480C4F87880C4F87C8000BF84F87090E2
:102360000320BDE8F0872068016821F4D071016086
:102370002068816821F001018160C4F87480C4F88C
:102380007880EBE72068C06936EA000004D00020BE
:10239000B842BDD00020E4E70120F9E70148FFF78B
:1023A000D7BB000030030020FEE70907090E002814
:1023B00004DB00F1E02080F80014704700F00F000B
:1023C00000F1E02080F8141D704702E008C8121FD9
:1023D00008C1002AFAD170477047002001E001C10E
:1023E000121F002AFBD1704710B58AB000210122CC
:1023F000CDE906120591039100910191029104919A
:10240000044608926946FEF715F802212046FDF7BA
:10241000FEFF0AB010BD00000F4810B50268102181
:1024200011620068016841F0100101600A4C0B4A1A
:10243000A06F20280ED18023A4F858300020E06738
:102440002168E06E2431FEF70EFC2068816841F0BF
:102450004001816010BD00003003002054160020B0
:1024600010B50548FEF72CFB0348FFF7BDFFBDE89C
:102470001040FFF7D1BF000074000020FEF7EAFC17
:10248000FFF7EEFFFFF758FDFFF706FDFFF7D2FC61
:10249000FFF7AEFCFFF716FDFFF7EAFC00F00EF8C1
:1024A000FEE701460020842900D0C81C704710B503
:1024B00000B9012000F018FB002010BD10B500F09D
:1024C00039FB002010BD7FB50D4604464169B0F9C7
:1024D000080081B1A16971B1FFF7E3FFD4E90512EA
:1024E0008DE80700D4E900102B46226900F035FC86
:1024F000039004B070BDFFF7D4FF03A9CDE900013C
:10250000208A2B4682B2D4E9001000F0F9FB0128A2
:1025100001D00020EDE70398EBE700002DE9F04142
:10252000184C0F46054666692068001D00F018FA31
:1025300038B9206890F82C1001208840A1698143A7
:10254000A161681C07D137B12168BDE8F0410E4890
:10255000091D00F049BA20683544B542456021683C
:1025600005D2A068BDE8F041091D00F025BA6068F9
:10257000091D00F021FA206B854200D22563BDE8D9
:10258000F081000014000020140500202DE9F04126
:10259000054600F035FA2E4C2069401C2061206869
:1025A0002C4F10B1E06940B32DE02560206901286F
:1025B00029D1002606EB860007EB800000F0EEF93B
:1025C000761C072EF6D323488C3000F0E7F921481B
:1025D000A03000F0E3F91F48B43000F0DFF91D48E7
:1025E000C83000F0DBF91B48DC3000F0D7F919489F
:1025F0008C3060601430A06005E02068E96AC06A31
:10260000884200D82560E06A401CE062E96A012047
:10261000A26988401043A06101EB810007EB8000B4
:10262000291D00F0E1F900F00BFAE06900280CD058
:102630002068E96AC06A884207D207494FF0805093
:102640000860BFF34F8FBFF36F8FBDE8F0810000CC
:10265000140000203804002004ED00E010B504460A
:1026600090F8510058B101280CD002280FD050200A
:1026700080F31188BFF34F8FBFF36F8FFEE7206B9E
:1026800000F0F2F92046BDE8104000F0EDB910BDB1
:102690000F4841F26401420705D0C01D0C4A20F0EA
:1026A0000700821A891A0B4A00230144C2E9000379
:1026B0000839103A21F0070111604B600B600B1ACA
:1026C000C0E9001393604FF000405360D060704742
:1026D0002805002060000020144E154CA6F1C80704
:1026E0004FF08058DFF84C9012E000BF00F088F9FE
:1026F000F068C568281D00F033F92069401E20618C
:10270000E068401EE06000F09BF92846FFF7A6FF56
:10271000E0680028EAD138680128F9D9C9F80080B2
:10272000BFF34F8FBFF36F8FF2E70000000500206B
:102730001400002004ED00E02DE9F0479A46DDE9A1
:10274000098481466FF00303206B03EB820210447F
:10275000089D20F00706700707D0502080F31188ED
:10276000BFF34F8FBFF36F8FFEE723180A5C83F828
:1027700034200A5C12B1401C1028F6D3002784F8DC
:102780004370072D00D30625E562C4E91157201DCB
:1027900000F00FF904F1180000F00BF92461C5F105
:1027A00007006462A061E76484F8507052464946AD
:1027B000304600F0BFF82060B8F1000F01D0C8F833
:1027C0000040BDE8F087000030B5114900E0114637
:1027D0000A688242FBD34B685C18844203D140688C
:1027E00018444860084643681C18944209D1084CB4
:1027F000103C2468A24209D052681A4442600A6818
:1028000012680260814200D0086030BD0460F9E7C0
:102810006000002006484168096829B14168C9681C
:10282000C9684968016370474FF0FF31FAE700005B
:102830001400002008484068401C4FF0500080F30E
:10284000118804D0BFF34F8FBFF36F8FFEE7BFF344
:102850004F8FBFF36F8FFEE7680000202DE9F04136
:102860000546002700F09CF9314E306808B9FFF7A3
:102870000FFFF06805424BD1C5B3083568070ED08D
:1028800005F00700C0F108000544680707D0502094
:1028900080F31188BFF34F8FBFF36F8FFEE72DB327
:1028A0007068854234D82248103001460C6801E037
:1028B00020460C466168A94202D221680029F7D15E
:1028C00031688C4224D0076821680160606808374D
:1028D000411B10290FD96019420708D0502080F3FE
:1028E0001188BFF34F8FBFF36F8FFEE710E0416099
:1028F0006560FFF769FF61687068401A7060B268D0
:10290000904200D2B060F06801430020C4E90001A9
:1029100000F0B2FA780707D0502080F31188BFF397
:102920004F8FBFF36F8FFEE73846BDE8F0810000A0
:102930005000002010B5031F4FF080741C601B1F57
:1029400021F001011960191F044B0B6014390A6052
:10295000091F6FF0020244380A6010BD35280008D4
:10296000D0E9013201699A60D0E901235A604A68CE
:10297000824201D182684A60002202610868401EDA
:102980000860086870470000034B036003F15400BF
:1029900008608020106070479C00002000F1080152
:1029A0004FF0FF32C0E90112C160016100210160F6
:1029B000704700210161704730B50B685A1C02D086
:1029C00000F1080202E0026904E02246546825682A
:1029D0009D42FAD953684B6099608A6051600861E2
:1029E0000168491C016030BD42684A6093688B6091
:1029F00093685960916008610168491C01607047E3
:102A0000502080F31188BFF34F8FBFF36F8F0A49B7
:102A10004868401C486001280CD10848006810F044
:102A2000FF0F07D0502080F31188BFF34F8FBFF303
:102A30006F8FFEE7704700006800002004ED00E0A3
:102A40000849486828B1401E486001D180F31188C8
:102A50007047502080F31188BFF34F8FBFF36F8F03
:102A6000FEE700006800002070B5002827D0144D54
:102A7000A0F108046168E868014207D1502080F3A2
:102A80001188BFF34F8FBFF36F8FFEE722683AB113
:102A9000502080F31188BFF34F8FBFF36F8FFEE795
:102AA0008143616000F07CF8606869680844686090
:102AB0002046FFF789FEBDE8704000F0DDB970BD2B
:102AC000500000204FF0E0200021016181610549A4
:102AD0004FF47A720968B1FBF2F1491E4161072196
:102AE000016170471000002010B5020014D00F489B
:102AF000806B38B1502080F31188BFF34F8FBFF344
:102B00006F8FFEE700F04CF800211046FFF706FD3E
:102B100000F0B2F9002807D105494FF08050086055
:102B2000BFF34F8FBFF36F8F10BD00001400002064
:102B300004ED00E010B586B00024039405AA04A9B2
:102B400003A80494FFF720FFDDE903010094CDE919
:102B5000011000230EA11048059A00F0FEF80F495D
:102B60000028486311D0502080F31188BFF34F8FA5
:102B7000BFF36F8F4FF0FF3008630120C8614C61D5
:102B800006B0BDE8104000F041B806B010BD00002E
:102B900049444C4500000000D926000814000020DC
:102BA0000248816B491C81637047000014000020BB
:102BB0001448816B11B101214162704700214162CB
:102BC0008169B1FA81F1C1F11F0101EB81020E4966
:102BD00051F822306BB101EB820101F108034A6820
:102BE00052684A609A4201D152684A60D1680160D5
:102BF0007047502080F31188BFF34F8FBFF36F8F62
:102C0000FEE7000014000020380400201CB53748FF
:102C10000168374A914207D1502080F31188BFF3F1
:102C20004F8FBFF36F8FFEE700683149491E88421E
:102C300007D1502080F31188BFF34F8FBFF36F8F00
:102C4000FEE72C4908780190FF20087008788DF87D
:102C500000009DF800009DF8002000F0F000904278
:102C600007D0502080F31188BFF34F8FBFF36F8FD1
:102C7000FEE79DF80000204B00F050001870072080
:102C8000986005E09DF8002052008DF80020401E5D
:102C90009DF800201206F5D49860032807D0502034
:102CA00080F31188BFF34F8FBFF36F8FFEE74FF4B0
:102CB00040709860019808700C482030016841F419
:102CC00070010160016841F070410160FFF7FAFE98
:102CD00000205860FDF786FA0848016841F040413D
:102CE0000160FDF76BFA00201CBD000000ED00E064
:102CF00071C20F4100E400E06800002034EF00E002
:102D00002DE9FF5F8346DDE90E87994616468A4620
:102D10009000FFF7A3FD05001CD05420FFF79EFD97
:102D2000040014D00020256384F85100CDE902404E
:102D3000CDE900874B46324651465846FFF7FCFC2A
:102D40002046FFF723FC012004B0BDE8F09F284691
:102D5000FFF78AFE4FF0FF30F6E7F0B585B0DDE90A
:102D60000B640A9DA6B1DCB15427009726630226A6
:102D700084F85160002604AFCDE90246CDE9005742
:102D8000FFF7DAFC2046FFF701FC049805B0F0BD20
:102D9000502080F31188BFF34F8FBFF36F8FFEE792
:102DA000502080F31188BFF34F8FBFF36F8FFEE782
:102DB0002DE9F0412E4C0027A06B40B1206A401C49
:102DC0002062606A00B101273846BDE8F08166697B
:102DD000761C666113D16068006838B1502080F3BA
:102DE0001188BFF34F8FBFF36F8FFEE76068A16854
:102DF0006160A060A06A401CA062FFF70BFD206B21
:102E0000DFF87080864209D36068006880B160682E
:102E1000C068C568686886420DD220632068C06AB1
:102E200000EB800158F821000128CAD90127C8E722
:102E30004FF0FF30F1E7281DFFF792FDA86A18B1A7
:102E400005F11800FFF78CFDE86A0121A2698140B5
:102E50001143A16100EB800108EB8100291DFFF700
:102E6000C3FDE86A2168C96A8842CDD30127CBE750
:102E700014000020380400202DE9F0472C4D0024D8
:102E80002746A86B38B1FFF7BBFDA86B401EA863AF
:102E9000A86B40B146E0502080F31188BFF34F8FFC
:102EA000BFF36F8FFEE72969224E0120D1B3A6F14F
:102EB000B40980463068E8B1F068C46804F11800CD
:102EC000FFF74EFD201DFFF74BFDE06AAA6908FAE7
:102ED00000F11143A96100EB800109EB8100211D84
:102EE000FFF782FDE06A2968C96A8842E2D3C5F823
:102EF0002480DFE70CB1FFF78DFC2C6A44B1464615
:102F0000FFF756FF00B16E62641EF9D100202862FF
:102F1000686A38B10849012738070860BFF34F8F46
:102F2000BFF36F8FFFF78CFD3846BDE8F0870000D8
:102F300014000020EC04002004ED00E0902F0008B5
:102F4000051F0008000000000000000080000000D5
:102F50000000000000000000020304050607080945
:102F60000A0B0C0D0E0F10100102030405060708D2
:102F7000090A0B0C0D0E0F100000000000000000ED
:102F8000010203040607080900000000010203040F
:102F900064656661756C745461736B00BC2F0008C6
:102FA0000000002074000000CA2300083030000830
:102FB00074000020641A0000DA23000800000000FA
:102FC00001000000100000000000000000127A0064
:102FD00000000000000000000000000000000000F1
:102FE00000000000000000000000000000000000E1
:102FF00000000000000000000000000000000000D1
:1030000000000000000000000000000000000000C0
:1030100000000000000000000000000000000000B0
:103020000000000000000000AAAAAAAA00000000F8
:040000050800018965
:00000001FF
