:020000040800F2
:10000000A04800205D02000847200008111E0008DB
:1000100045200008A1030008212600080000000078
:100020000000000000000000000000009D0100082A
:10003000B504000800000000F90100085120000884
:1000400077020008770200087702000877020008AC
:10005000770200087702000877020008770200089C
:10006000770200087702000877020008D50300082D
:10007000770200087702000877020008770200087C
:10008000E10300087702000877020008B1030008C6
:10009000A50300087702000877020008770200082D
:1000A000770200087702000877020008770200084C
:1000B000552100087702000877020008770200083F
:1000C000770200087702000877020008770200082C
:1000D00077020008092600081526000877020008A4
:1000E000770200087702000877020008770200080C
:1000F000770200087702000877020008ED03000885
:1001000077020008770200087702000877020008EB
:100110007702000829220008770200087702000809
:100120007702000877020008F90300087702000848
:10013000770200087702000877020008C903000868
:10014000BD03000877020008770200087702000864
:10015000770200087702000805040008770200080B
:10016000770200087702000877020008770200088B
:1001700077020008770200087702000800000000FC
:100180007702000877020008DFF80CD000F0F6F8DC
:100190000048004719270008A04800202C4B196888
:1001A0000868B0E8F04F80F30988BFF36F8F4FF015
:1001B000000080F3118870470000000008480068C4
:1001C000006880F308884FF0000080F3148862B65E
:1001D00061B6BFF34F8FBFF36F8F00DF00BF00BF6B
:1001E00008ED00E0DFF80C00016841F470010160E7
:1001F000704700BF88ED00E0EFF30980BFF36F8F19
:10020000134B1A681EF0100F08BF20ED108A20E96A
:10021000F04F106009B44FF0500080F31188BFF325
:100220004F8FBFF36F8F02F08FFE4FF0000080F30F
:10023000118809BC19680868B0E8F04F1EF0100F6B
:1002400008BFB0EC108A80F30988BFF36F8F704746
:1002500018000020EFF30580704700000648804733
:1002600006480047FEE7FEE7FEE7FEE7FEE7FEE79B
:10027000FEE7FEE7FEE7FEE701210008890100082E
:100280002DE9F05F0546002092469B4688460646CB
:10029000814640241BE0284641464746224600F05E
:1002A0005CF853465A46C01A914110D3114618467D
:1002B000224600F043F82D1A67EB01084F4622460C
:1002C0000120002100F03AF817EB00094E41201EF2
:1002D000A4F10104DFDC484631462A464346BDE826
:1002E000F09F40EA01039B0703D009E008C9121FF1
:1002F00008C0042AFAD203E011F8013B00F8013BE0
:10030000521EF9D27047D2B201E000F8012B491E0B
:10031000FBD270470022F6E710B513460A460446A2
:100320001946FFF7F0FF204610BD034611F8012BD8
:1003300000F8012B002AF9D118467047202A04DB67
:10034000203A00FA02F1002070479140C2F12003E8
:1003500020FA03F3194390407047202A04DB203A27
:1003600021FA02F00021704721FA02F3D040C2F1D5
:10037000200291400843194670470000064C074D83
:1003800006E0E06840F0010394E807009847103465
:10039000AC42F6D3FFF7FCFED8340008F83400086E
:1003A000FEE70000014800F094B900009000002032
:1003B000014800F08EB9000090000020014800F0D4
:1003C00088B90000B8000020014800F082B90000A0
:1003D000B8000020014800F089BC0000340400206F
:1003E000014800F083BC0000B4050020014800F083
:1003F0007DBC000094040020014800F077BC0000A0
:10040000F4040020014800F071BC000054050020F5
:1004100001681823CAB2103AB2FBF3F2054B6FF32E
:100420000901032A9B5CC36500D9091D8165084643
:1004300070470000AC34000810B5014600208B69FD
:100440008A6A4FF0C07453B1B3F5005F15D072B132
:10045000012A0CD0022A0AD0032A09D104E01AB1D9
:10046000012A06D0022A03D1C96AC90100D5012098
:1004700010BDC96AA142FAD010BD002AF7D0012AE6
:10048000F2D0022AF3D0032AF3D010BD30B50468AD
:10049000256825F480252560046863608368402B07
:1004A000036803D099600068C26030BD9A6000683C
:1004B000C16030BD7047704790F82020012A07D0F6
:1004C000022A05D0416A41F480214162012070472F
:1004D000006842690A4342610020704710B590F8F5
:1004E0002020012A07D0022A05D0416A41F4802148
:1004F0004162012010BD3B48D0F8002242F00102C9
:10050000C0F80022D0F8002222F47C52C0F8002269
:10051000D0F800224B6A42EA0322C0F800220A7D8A
:1005200002F01F0301229A40D0F81C329343C0F816
:100530001C32CB69B3B9D0F80C329343C0F80C32FB
:100540008C894B6864F31F434C6900EBC404C4F806
:1005500040320C890B6864F31F434C6900EBC40400
:10056000C4F84432CB69012B16D1D0F80C321343B6
:10057000C0F80C320C884B6864F31F434C6900EBE5
:10058000C404C4F840320C89CB6864F31F434C693F
:1005900000EBC404C4F844328B69002BD0F8043259
:1005A0000ED01343C0F804320B69002BD0F814327C
:1005B00008D01343C0F81432096A012904D008E0B6
:1005C0009343EFE79343F5E7D0F81C121143C0F8CB
:1005D0001C12D0F8001221F00101C0F80012002016
:1005E00010BD000000640040704730B590F8204016
:1005F000012C05D0022C03D0416A41F480215DE03A
:100600000468002955D02469A40754D04FF4D87445
:10061000056804EB01142D5915F004059560056873
:100620002D594ED0ED08556005682C59C4F340048F
:10063000D4604FF4DA74056804EB01142D5905F009
:100640000F05156105682D59C5F3072595610568E6
:100650002C59240C54614FF4DC72046802EB011233
:10066000A4581C700468A458240A5C700468A45838
:10067000240C9C700468A258120EDA704FF4DE72DB
:10068000046802EB0112A4581C710468A458240ADF
:100690005C710468A458240C9C710468A258120E62
:1006A000DA71006881B1016941F020010161002027
:1006B00030BDE468A8E7416A41F4001141620120BD
:1006C00030BD6D0D1560AFE7C16841F02001C1601C
:1006D000EDE72DE9F05F0546006800244669D0F893
:1006E00004908768D0F80CB0D0F810A0D0F818802B
:1006F000F10748D0F90714D001218160B80703D56C
:10070000284600F0DAFA0CE0780702D54FF40064CE
:1007100007E0380702D54FF4805402E0284600F085
:10072000CBFAF80516D529684FF480708860B805B3
:1007300003D5284600F0C3FA0CE0780502D544F44E
:10074000005407E0380502D544F4804402E028460E
:1007500000F0B4FAF80316D529684FF480308860A9
:10076000B80303D5284600F0ACFA0CE0780302D5B4
:1007700044F4004407E0380302D544F4803402E036
:10078000284600F09DFA300707D55FEACB6004D514
:100790002968102044F40074C86070074FF00807FF
:1007A00007D55FEA0B7004D52868C760284600F0BB
:1007B000ABF9B00706D52868C068800702D0284684
:1007C00000F0A4F9700607D55FEACA6004D529686D
:1007D000102044F480640861B00607D55FEA0A700F
:1007E00004D528680761284600F036FAF00606D5D9
:1007F00028680069800702D0284600F02EFAB0036E
:1008000008D55FEAC96005D52968102048602846E8
:1008100000F024FAF00307D55FEA097004D52868D0
:100820004760284600F04EFA300446D55FEA49702A
:1008300040D5F00504D55FEAC87001D044F001044A
:10084000B00504D55FEA887001D544F00204700554
:1008500004D55FEA487001D544F00404300529D579
:1008600018F0700F26D008F07000402815D006DC74
:10087000102809D020280AD0302816D10AE05028A4
:100880000ED0602811D10EE044F008040DE044F0D1
:1008900010040AE044F0200407E044F0400404E0BF
:1008A00044F0800401E044F480742868816921F0F8
:1008B00070018161296804204860002C05D0686AB5
:1008C000204368622846FFF78FFEBDE8F09F70B5B1
:1008D000040003D094F8200010B104E0012070BDA2
:1008E000204600F081F82068016821F002010160D3
:1008F00000F032FC0546052604E000F02DFC401B0C
:100900000A2811D8206840688007F6D4206801685A
:1009100041F00101016000F01FFC05460BE000F012
:100920001BFC401B0A2806D9606A40F40030606254
:1009300084F82060D2E720684068C007EFD0207EAE
:100940000128206801683DD021F080010160607EAF
:1009500001282068016838D021F040010160A07EA4
:1009600001282068016833D021F020010160E07E79
:100970000128206801682ED041F010010160207F1D
:1009800001282068016829D021F008010160607FFA
:1009900001282068016824D021F004010160D4E915
:1009A00002010843D4E90412114308436168491E57
:1009B00008432168C86100206062012084F820009B
:1009C000002070BD41F08001C0E741F04001C5E763
:1009D00041F02001CAE721F01001CFE741F0080102
:1009E000D4E741F00401D9E7F0B587B004461421FB
:1009F0006846FFF78FFC3F4B3F48DFF8F4E019688B
:100A0000D4F800C03C4A02250326092710300024F0
:100A1000491CF4452CD11960012907D1016841F026
:100A200000710160006800F000700590106840F0EF
:100A300001001060106802AB00F0010005904FF457
:100A4000C050CDE9000583E8D00069462B4800F08E
:100A5000ABFA00220521132000F00AFC132000F05D
:100A6000F9FB00220521142000F002FC14203BE0D9
:100A7000DFF88CE0F44539D1D0F800C04CF0806C40
:100A8000C0F800C0D0F800C001290CF0806CCDF88F
:100A900014C0196007D1016841F00071016000685D
:100AA00000F000700590106840F0020010601068BF
:100AB00002AB00F0020005904FF44050CDE9000574
:100AC00083E8D00069460F4800F06EFA0022052145
:100AD0003F2000F0CDFB3F2000F0BCFB00220521B1
:100AE000402000F0C5FB402000F0B4FB07B0F0BD93
:100AF0000064004000000020303802400000024046
:100B00000068004000040240704700002DE9F043F7
:100B10004C4A016889B091427ED107AB6A460021F8
:100B2000FFF763FD009948484FF48058A1F2012176
:100B3000C8F10009A0F17807042930D2C9B201EB4D
:100B4000810100EB810507EB810414222146284630
:100B5000FFF7C7FBBDF81C0040BA00B2E080BDF84B
:100B60001E1049BA2181BDF8201049BA61819DF853
:100B700022102173B5F90E10E181C1EB413202441C
:100B80002261B5F90620801A404501DD491E02E0C8
:100B9000484501DA491CE18109B0BDE8F083009ABB
:100BA000A2F20522042AF7D2C9B201EB810607EBB3
:100BB000860400EB8605284614222146FFF791FBA8
:100BC000BDF81C0040BA02B2E280BDF81E0040BA77
:100BD0002081BDF8200040BA60819DF8220020737A
:100BE000B5F90E00E081C0EB40311144216117F8E6
:100BF0002610012904D0012007F82600CCE70BE0DD
:100C0000B5F90610511A414501DD401E02E0494583
:100C1000C2DA401CE081BFE70C4A9142BCD107AB6D
:100C20006A460021FFF7E1FC00986E2803D107A96E
:100C30000748FFF77AFB07480321006801F098FD99
:100C4000AAE70000006800407C43002000640040E8
:100C5000204400207C00002070477047704700004F
:100C600070B5044690F82000012804D0606A40F472
:100C70000020606218E0022084F8200020680168EB
:100C800021F00101016000F067FA05460EE000BFA7
:100C900000F062FA401B0A2808D9606A40F400306C
:100CA0006062052084F82000012070BD2068406843
:100CB000C007EDD1606270BD7047704770477047E4
:100CC00070477047704790F83510022903D0802193
:100CD000416501207047052180F8351000680168E2
:100CE00021F0010101600020704700002DE9F84368
:100CF00004464FF00009CDF8009063484FF41651B8
:100D0000A56D0068B0FBF1F72E6894F85C10082020
:100D100000FA01F131420FD021680A6852070BD561
:100D20000A6822F004020A6094F85C108840A86007
:100D3000606D40F00100606594F85C104FF00108B0
:100D400008FA01F0304208D021684969090604D543
:100D5000A860606D40F00200606594F85C100420AB
:100D60008840304208D021680968890704D5A86006
:100D7000606D40F00400606594F85C1010208840BD
:100D8000304218D021680968090714D5A860206886
:100D90000168490304D50068000308D5A16C07E089
:100DA0000168C90503D4016821F008010160216CC4
:100DB00009B12046884794F85C10202088403042D2
:100DC00031D021680968C9062DD5A86094F835008E
:100DD00005282068016806D0490347D5006800034C
:100DE0001DD4616C1CE021F016010160206841698E
:100DF00021F080014161206C08B9A06C20B120680D
:100E0000016821F00801016094F85C103F208840DF
:100E1000A86084F8349084F83580216D1FE0E16B80
:100E200009B120468847606D00282BD0606DC0074F
:100E300014D0052084F835002068016821F00101F4
:100E400001600098401C0090B84203D820680068F8
:100E5000C007F6D184F8349084F83580E16C00291D
:100E600010D001B02046BDE8F04308470168C9052D
:100E7000D5D4016821F01001016084F8349084F821
:100E80003580CCE7BDE8F883140000202DE9F0415F
:100E9000044600F061F906465CB1002584F8345040
:100EA000022084F835002068016821F0010101600A
:100EB0000DE00120BDE8F08100F04EF9801B05280F
:100EC00005D920206065032084F83500F2E720680A
:100ED0000068C007F0D12268116820480140D4E9B9
:100EE00001031843D4E903363343184363691843B5
:100EF000A3691843E3691843236A18430843616AE6
:100F0000042903D1D4E90B13194308431060206866
:100F10004069666A20F0070130460E430127042825
:100F20000CD1A06A0643E06A40B12046FFF784FA7C
:100F300020B14020606584F83570BAE720684661CA
:100F40002046FFF765FA94F85C203F2191408160CC
:100F5000656584F835700020ACE700003F8010F034
:100F600070B5044690F83400002501280CD001200B
:100F700084F8340094F835600020012E06D084F8FF
:100F800034000225284670BD022070BD022684F878
:100F9000356060652046FFF779FA2068016841F006
:100FA00001010160EEE700002DE9F84FDFF87CB1A8
:100FB00000224FF001084FF0030A4FF00F090BF128
:100FC000040E00BF0B6808FA02F42340A3426ED15E
:100FD0004D68022D01D0122D0ED1D50800EB850CE5
:100FE000DCF820505607F70E09FA07F6B5430E69EC
:100FF000BE402E43CCF82060066855000F790AFAEF
:1010000005FC07F0030726EA0C06AF4037430760EC
:101010004E68012E05D0022E03D0112E01D0122EC3
:101020000ED18668CF6826EA0C06AF40374387604A
:101030004668A6430C79C4F30014944034434460DA
:10104000C6688C6826EA0C06AC403443C4604C6821
:10105000E40065D5364C256845F480452560246854
:1010600022F0030504F480440094324C2E19D6F883
:10107000084895072F0F09FA07F5AC432E4DA842F3
:1010800001D1002524E02D4DA84201D101251FE00A
:101090002B4DA84201D102251AE02A4DA84201D1C8
:1010A000032515E0284DA84202D1042510E037E0C1
:1010B000264DA84201D105250AE0254DA84201D1BF
:1010C000062505E0234DA84201D1072500E00825AB
:1010D000BD402543C6F80858DBF800405D464E6821
:1010E0009C43F60300D51C432C60DEF80040754697
:1010F0004E689C43B60300D51C432C600B4D08354D
:101100002C684E689C43F60200D51C432C60074DAA
:101110000C352C684E689C43B60200D51C432C60ED
:10112000521C102AFFF44EAFBDE8F88F003C01407E
:1011300044380240003001400000024000040240F8
:1011400000080240000C024000100240001402405F
:1011500000180240001C02400148806870470000EF
:1011600008000020024881680278114481607047BD
:10117000080000200B4810B5016841F400710160BF
:10118000016841F480610160016841F4807101608F
:10119000032000F08DF8002000F006F800F03EF883
:1011A000002010BD003C024010B5014688B000226E
:1011B0001C2000F05DF81C2000F04CF814480024BE
:1011C000016841F001010160006805A900F001001B
:1011D0000690684600F016F900F034F90D49400019
:1011E000B0FBF1F10C484FF08042491E026040F222
:1011F000E732C0E90324C0E9011400F005FB10B197
:10120000012008B010BD044800F01AFBF9E7000007
:101210004038024040420F00340300200C4882B0A6
:10122000016841F480410160006800F48040009052
:101230000748001F016841F08051016000680022EA
:1012400000F0805000900F21901E02B000F010B806
:1012500044380240002809DB00F01F0201219140C0
:101260004009800000F1E020C0F800117047000044
:10127000F0B40E4B1B680C46C3F30223C3F1070501
:10128000042D00D90425191D072901D2002300E0EF
:10129000DB1E012606FA05F1491E214099409E40B9
:1012A000761E16403143F0BC01F0BBB90CED00E0F6
:1012B000064900F0070208684FF6FF03184040EAAD
:1012C0000220034A10430860704700000CED00E064
:1012D0000000FA052DE9F0470E46050065D0DFF85D
:1012E0001481D8F80000F7B200F00F00B04207D226
:1012F00088F80070D8F8000000F00F00B04254D118
:1013000028683D4C810712D5400703D5206840F47A
:10131000E05020602878000703D5206840F4604042
:1013200020602068A96820F0F00008432060287839
:10133000C0072DD0304968680839012812D002282A
:1013400013D0032811D00968890700292DDA2168F4
:1013500021F0030101432160FFF7FEFE814641F2C7
:10136000883A0EE009688903EFE709688901ECE72C
:10137000FFF7F2FEA0EB0901514502D90320BDE8B9
:10138000F0872068696800F00C00B0EB810FEFD1A6
:10139000D8F80010404601F00F01B14207D907709C
:1013A000006800F00F00B04201D00120E7E7287884
:1013B000400705D52068E96820F4E0500843206024
:1013C0002878000706D52068296920F4604040EAA3
:1013D000C100206000F056F82168084AC1F30311EB
:1013E000515CC840064908600020FFF7DDFE002080
:1013F000C5E70000003C024008380240B434000851
:10140000140000200F2202600C4A136803F003034B
:101410004360136803F0F0038360136803F4E05340
:10142000C36012684FF4E05303EAD2020261044839
:10143000006800F00F0008607047000008380240A4
:10144000003C02400448054900680968044AC1F3A9
:101450008221515CC84070471400002008380240C7
:10146000C43400080448054900680968044AC1F307
:101470004231515CC84070471400002008380240D7
:10148000C4340008154810B5006810F00C02144868
:1014900013D01449042A0FD0082A0ED10F4C241F50
:1014A0002268236802F03F025B0207D52068C0F380
:1014B0008810A0FB010106E0084610BD2168C1F3B9
:1014C0008811A1FB00010023FEF7DAFE2168C1F3B9
:1014D0000141491C4900B0FBF1F010BD0838024041
:1014E0000024F40040787D012DE9F84F050076D006
:1014F0002878DFF8F8B2BE4CC00749D0DBF80010FE
:101500005846C1F38101012908D00068C0F3810069
:1015100002280AD1201D0068400206D520688003F9
:1015200036D568680028E2D032E06868B0F5803FC0
:1015300010D0B0F5A02F206810D020F480302060AB
:10154000206820F4802020606868A0B1FFF704FEC6
:1015500006460CE0206840F48030F4E740F4802038
:101560002060F7E7FFF7F8FD801B642873D8206838
:101570008003F7D50CE0FFF7EFFD064605E000BF5E
:10158000FFF7EAFD801B6428F0D820688003F7D4B9
:101590002878DFF8608280074FF000093ED5DBF83D
:1015A0000010584611F00C0F09D00068C0F38100FC
:1015B00002280BD18D48001F0068400206D4206825
:1015C000800715D5E868012809D111E0E868B8B1AD
:1015D0000120C8F80000FFF7BFFD064605E002E164
:1015E000FFF7BAFD801B0228C0D820688007F7D516
:1015F0002068296920F0F80040EAC10020600DE071
:10160000C8F80090FFF7A8FD064604E0FFF7A4FD28
:10161000801B02281FD820688007F7D4287800078D
:1016200022D5724E744869696C3671B1012101602E
:10163000FFF792FD074604E0FFF78EFDC01B02286E
:1016400009D830688007F7D50EE0C0F80090FFF7A2
:1016500083FD074605E083E0FFF77EFDC01B0228FF
:101660007ED830688007F7D42878400768D5DFF83F
:101670007CA100270AF1380ADAF80000C0000BD478
:10168000DAF8001041F08051CAF80010DAF80000D2
:10169000012700F080500090584E3068C00510D4EB
:1016A000306840F480703060FFF756FD009005E030
:1016B000FFF752FD0099401A022851D83068C00542
:1016C000F6D54A4EA868683601280FD0052830683C
:1016D00010D020F001003060306820F0040030604D
:1016E000A868B8B1FFF738FD00900FE0306840F00F
:1016F0000100F4E740F004003060F7E7FFF72CFD4D
:101700000099411A41F28830814264D830688007DC
:10171000F4D50EE0FFF720FD009007E0FFF71CFD79
:101720000099411A41F28830814254D830688007CC
:10173000F4D42FB1DAF8001021F08051CAF800106B
:10174000A869C0B3DBF80010C1F3810102294AD0B7
:101750000228484607D0C8F86000FFF7FDFC00E00B
:1017600039E005463AE04746C8F86000FFF7F4FC68
:10177000064604E0FFF7F0FC801B02282BD8206807
:101780008001F7D4D5E907010843A96A1C4A490832
:1017900002EB01416A6A41EA8211084395F82C1074
:1017A00040EA01611148001F016001203866FFF71F
:1017B000D3FC054605E014E0FFF7CEFC401B0228F1
:1017C00009D820688001F7D50BE000BFFFF7C4FC03
:1017D000401B022802D90320BDE8F88F2068800151
:1017E000F4D40020F8E70120F6E7000008380240B2
:1017F0000038024000004742800E4742007000401F
:101800000000FFFF7047704710B5040003D094F844
:101810003D0010B107E0012010BD002084F83C001D
:10182000204600F00CF8022084F83D00211D2068BD
:1018300000F096FC012084F83D00002010BD7047A8
:101840000168CA6842F00102CA600068816801F05C
:101850000701062903D0016841F001010160002061
:101860007047704770B50446006801694FF0000585
:10187000C943890715D4C168C943890711D4E91E32
:10188000016101202077206880698007204602D00E
:10189000FFF7E7FF04E000F098F8204600F096F824
:1018A000257720680169C943490717D4C168C9432E
:1018B000490713D46FF004010161022020772068EA
:1018C000806910F4407F204602D0FFF7CAFF04E091
:1018D00000F07BF8204600F079F825772068016950
:1018E000C943090716D4C168C943090712D46FF068
:1018F00008010161042020772068C0698007204624
:1019000002D0FFF7AEFF04E000F05FF8204600F0E1
:101910005DF8257720680169C943C90617D4C168F5
:10192000C943C90613D46FF0100101610820207764
:101930002068C06910F4407F204602D0FFF791FF75
:1019400004E000F042F8204600F040F825772068D7
:101950000169C943C90708D1C168C943C90704D18E
:10196000891E0161204600F032F820680169C943F0
:10197000090609D4C168C943090605D46FF080017E
:1019800001612046FFF73EFF20680169C94349060F
:1019900009D4C168C943490605D46FF0400101610B
:1019A000204600F01BF820680169C94389060BD462
:1019B000C168C943890607D46FF020010161204640
:1019C000BDE87040FFF71FBF70BD704770470068EB
:1019D000B0F1804F01D1FFF7C5BB7047704770472A
:1019E00070B5026804461068D168536910F00F0F93
:1019F00050D003F0010501F4907635435DD0C20765
:101A000005D0CA0503D5E26B42F00102E26342074A
:101A100005D5DA0703D0E26B42F00202E2638207E7
:101A200005D5DA0703D0E26B42F00402E263020755
:101A300005D5DA0703D0E26B42F00802E263E26BFD
:101A4000002A33D0800604D5880602D5204600F04F
:101A500007FC20684069E16BC0F38010090700D4DF
:101A600028B3204600F0EEFB2068416949061AD5EC
:101A7000416921F040014161606BA0B11B490165E2
:101A8000606BFFF720F9002810D0606B016DBDE896
:101A900070400847830610D58B060ED52046BDE85A
:101AA000704000F0DDBB2046FFF799FF70BD204677
:101AB000FFF795FF0020E06370BD030606D50B0617
:101AC00004D52046BDE8704000F06CBD4006F3D55B
:101AD0004806F1D5D168204621F04001D16020218F
:101AE00084F8391000F093F970BD00003522000829
:101AF00070B5040004D094F83900002510B106E058
:101B0000012070BD84F83850204600F023F82420CE
:101B100084F839002068C16821F40051C160204672
:101B200000F0EAFB2068016921F49041016120681E
:101B3000416921F02A0141612068C16841F40051E6
:101B4000C160E563202084F8390084F83A00002061
:101B500070BD00002DE9F04F87B00546142168469E
:101B6000FEF7D8FB9F48DFF8788210380221D5F8BD
:101B700000C0DFF870920122032300248E060715AF
:101B8000C44576D1D9F8008048F48018C9F800809F
:101B9000D9F800C00CF4801CCDF814C0D0F800C0F7
:101BA0004CF0040CC0F800C0D0F800C00CF0040CDD
:101BB000CDF814C0D0F800C04CF0080CC0F800C03C
:101BC00000688A4600F008000590C80293468DE838
:101BD000010C4FF00809CDE903399846694682485F
:101BE000FFF7E2F904208DE8010C69467F48CDE952
:101BF0000389FFF7D9F9DFF8FCA17D495046CAF8FF
:101C00000010C0E90164C0E903474FF48078CAF8C6
:101C10001440C0E90648CAF82040B946CAF8244032
:101C2000FFF734F908B1FEF746FC724F7048C5F86B
:101C300034A06037A830CAF83850E7E802064020E0
:101C4000A7E811026B4847F814496030C7E9064815
:101C50003C627C62FFF71AF908B1FEF72CFC2F6397
:101C6000002205213520BD63FFF702FB352069E026
:101C7000FFE7DFF88481DFF884B14FF0070AC4453D
:101C800065D1DFF860C1A1460CF1040CDCF80080DE
:101C900048F01008CCF80080DCF800C00CF0100C04
:101CA000CDF814C0D0F800C04CF0010CC0F800C052
:101CB000006800F0010005904FF4C0608DE80F044B
:101CC00069465846FFF770F9DFF828814C4908F15A
:101CD000C0084046C8F80010C0E90164C0E90347E5
:101CE0004FF4807AC8F81440C0E9064AC8F820408A
:101CF000C8F82440FFF7CAF808B1FEF7DCFB4048FB
:101D0000404CC5F834807830C8F83850C4E9000633
:101D10004020A060C4E90397C4F81490C4E9069A6F
:101D2000C4F820902046C4F82490FFF7AFF808B11B
:101D3000FEF7C1FB2C63002205212520A563FFF7D8
:101D400097FA2520FFF786FA07B0BDE8F08FDFF895
:101D5000B880C445F8D1D9F8008048F40038C9F8F3
:101D60000080D9F800C00CF4003CCDF814C0D0F8C5
:101D700000C04CF0010CC0F800C0006800F0010089
:101D800005900C208DE80F0469465846FFF70CF9C2
:101D9000DFF87080164908F1600878314046C8F8CD
:101DA0000010C0E90164C0E90347C8F81440C8F84E
:101DB0001840C8F81C40C8F82040C8F82440FFF775
:101DC00065F808B1FEF777FBC5F8348000220521DD
:101DD0002620C8F83850FFF74BFA2620B2E700005B
:101DE000005000404038024000080240000C024011
:101DF0001060024034040020001001400000024046
:101E00004064024054050020004400407047704781
:101E1000FEE700000E4810B50C4901600421416046
:101E200000214FF4E0228160C0E903124161017694
:101E300041768176C17601774177FEF748FD00282B
:101E400003D0BDE81040FEF736BB10BD0064004073
:101E5000900000200E4810B50C490160052141603A
:101E600000214FF4A0228160C0E903124161017694
:101E700041768176C17601774177FEF728FD00280B
:101E800003D0BDE81040FEF716BB10BD006800404F
:101E9000B80000201D4808B5016841F480010160C8
:101EA000016801F480010091016841F400110160B2
:101EB0000068002200F40010009005210B20FFF7BD
:101EC000D7F90B20FFF7C6F9002205211020FFF7F4
:101ED000CFF91020FFF7BEF9002205212F20FFF7D0
:101EE000C7F92F20FFF7B6F9002205213A20FFF7A6
:101EF000BFF93A20FFF7AEF9002205214620FFF78F
:101F0000B7F9BDE808404620FFF7A4B930380240D1
:101F100000B587B01C2206496846FEF7E2F90021A9
:101F2000684600F053FC0349086007B000BD00009C
:101F30009034000804000020154808B5016841F0FD
:101F400080010160016801F080010091016841F0A9
:101F500001010160016801F001010091016841F097
:101F600002010160016801F002010091016841F085
:101F700004010160016801F004010091016841F071
:101F800008010160006800F00800009008BD000032
:101F9000303802400C4810B50A4901604FF4E13175
:101FA0004160002181600C22C160C0E9041281619E
:101FB000C161FFF79DFD002803D0BDE81040FEF78A
:101FC0007ABA10BD00500040740300200C4810B5D0
:101FD0000A4901604FF4E1314160002181600C2227
:101FE000C160C0E904128161C161FFF781FD002871
:101FF00003D0BDE81040FEF75EBA10BD00100140EE
:10200000B40300200D4810B50B4901600C49416034
:102010004FF48051816000210C22C160C0E904129C
:102020008161C161FFF764FD002803D0BDE8104065
:10203000FEF741BA10BD000000440040F403002048
:10204000A0860100FEE77047012000F084FBFBE75B
:1020500010B5502080F31188BFF34F8FBFF36F8FFF
:1020600001F050F918B104494FF080500860002089
:1020700080F3118810BD000004ED00E030B593B08E
:1020800030216846FEF746F914210CA8FEF742F904
:1020900019480025016841F080510160006800F096
:1020A000805011901548016841F48041016000683A
:1020B000022400F48040119001200390102004902D
:1020C000009406940820CDE90750A020CDE909042A
:1020D00004200B906846FFF707FA0CA90F2081E84F
:1020E00031004FF4A0500F90E002109005210CA891
:1020F000FFF7F0F813B030BD4038024000700040E8
:102100001048016841F4700101600F48016841F016
:10211000010101600C4A00210832116002680B4B7A
:102120001A400260031D0A4A1A60026822F48022E3
:10213000026005480C300160024958068039086089
:102140007047000088ED00E000380240FFFFF6FE17
:10215000103000240148FFF785BB00003403002045
:10216000F0B50268254C264D264E274F274B4FF0E1
:10217000804CA04209D0604507D0A84205D0B042AB
:1021800003D0B84201D0984204D122F0700E4A68C0
:1021900042EA0E02A0421BD0604519D0A84217D0D7
:1021A000B04215D0B84213D0984211D0184DA84271
:1021B0000ED0184DA8420BD0174DA84208D0174D8D
:1021C000A84205D0164DA84202D0164DA84203D110
:1021D00022F44075CA682A434D6922F080022A43DE
:1021E00002608A68C2620A688262A04201D0984294
:1021F00001D10969016301214161F0BD0000014085
:102200000004004000080040000C004000040140B1
:1022100000400140004401400048014000180040D7
:10222000001C0040002000400148FFF7D9BB00001F
:102230007403002010B5806B0021C185C184FFF7B5
:10224000CEFB10BD0168CA6822F49072CA600168B2
:102250004A6922F001024A61202180F83A10704751
:1022600010B590F83A10222901D0022010BD8168E3
:10227000B1F5805F11D00169002901681FD049685C
:1022800001F07F03816A4A1C82620B70C18D491E76
:102290000904090CC18518D02BE00269816A002A63
:1022A0000268526805D0D2B20A80816A491C8162F4
:1022B000ECE7C2F308020A80816A891CF7E74A68E2
:1022C000816A4B1C83620A70E0E70168CA6822F0E9
:1022D0002002CA600168CA6822F48072CA6001687C
:1022E0004A6922F001024A61202180F83A10FFF782
:1022F0008DFD002010BD00002DE9F041044600686E
:102300000169E26821F44051114301612169A0682B
:10231000E26908436169114322680843D16849F2C0
:102320000C6399430143D16020684169A26921F49B
:10233000407111434161E2696425B2F5004F97484D
:10234000974922684FF032083FD08A4201D082423A
:102350007CD1FFF787F800EBC00101EB001061684A
:102360008900B0FBF1F6FFF77DF800EBC00101EB4F
:10237000001061688900B0FBF1F0B0FBF5F06FF080
:102380001801484306EB800108EB0110B0FBF5F0A3
:1023900000F0F006FFF766F800EBC00101EB00105B
:1023A00061688900B0FBF1F0B0FBF5F006EB0016B8
:1023B000FFF758F800EBC00101EB001061688900DD
:1023C000B0FBF1F7FFF74EF8D2E08A4201D082422B
:1023D0003DD1FFF747F800EBC00101EB0010616849
:1023E0004900B0FBF1F0B0FBF5F00601FFF73AF859
:1023F00000EBC00101EB001061684900B0FBF1F790
:10240000FFF730F800EBC00101EB001061684900F4
:10241000B0FBF1F0B0FBF5F06FF01801484307EBAB
:10242000800108EBC100B0FBF5F000F0F80006EB0E
:102430004006FFF717F800EBC00101EB00106168E0
:102440004900B0FBF1F7FFF70DF83CE055E0FEF76F
:10245000F9FF00EBC00101EB001061684900B0FB1F
:10246000F1F0B0FBF5F00601FEF7ECFF00EBC00168
:1024700001EB001061684900B0FBF1F7FEF7E2FFE5
:1024800000EBC00101EB001061684900B0FBF1F006
:10249000B0FBF5F06FF01801484307EB800108EB43
:1024A000C100B0FBF5F000F0F80006EB4006FEF7C7
:1024B000C9FF00EBC00101EB001061684900B0FBEF
:1024C000F1F7FEF7BFFF00EBC00101EB0010616800
:1024D0004900B0FBF1F0B0FBF5F06FF01801484394
:1024E00007EB800108EBC100B0FBF5F000F007003E
:1024F000216830448860BDE8F081FEF7A3FF00EB5F
:10250000C00101EB001061688900B0FBF1F6FEF735
:1025100099FF00EBC00101EB001061688900B0FB7E
:10252000F1F0B0FBF5F06FF01801484306EB8001C5
:1025300008EB0110B0FBF5F000F0F006FEF782FFAB
:1025400000EBC00101EB001061688900B0FBF1F005
:10255000B0FBF5F006EB0016FEF774FF00EBC001D0
:1025600001EB001061688900B0FBF1F7FEF76AFF2C
:1025700000EBC00101EB001061688900B0FBF1F0D5
:10258000B0FBF5F06FF01801484307EB800108EB52
:102590000110B0FBF5F000F00F00A9E700140140B6
:1025A0000010014090F83910212901D00220704715
:1025B0008168B1F5805F016A0BD04A1C0262026833
:1025C00009785160C18C491E0904090CC1840ED0E0
:1025D00017E009880268C1F3080151600169002908
:1025E000016A02D0491C0162ECE7891CFBE7016823
:1025F000CA6822F08002CA600068C16841F04001E8
:10260000C1600020704700000148FFF7E9B90000F1
:10261000B40300200148FFF7E3B90000F4030020F1
:10262000FEE70907090E002804DB00F1E02080F82E
:102630000014704700F00F0000F1E02080F8141D36
:10264000704702E008C8121F08C1002AFAD170477B
:102650007047002001E001C1121F002AFBD1704722
:1026600010B58AB000210122CDE90612059103912F
:102670000091019102910491044608926946FDF788
:102680002DFF02212046FDF717FF0AB010BD000004
:102690000F4808B50068016841680091C16841F0C1
:1026A0001001C16032220B49094800F0DDFA0A48E6
:1026B0000068016841680091C16841F01001C16083
:1026C000BDE808400A220549034800F0CDBA0000E1
:1026D000F4030020F4430020B4030020880000200D
:1026E00010B50848FEF7BCFA0648FFF7B9FF0648E0
:1026F000FEF7B6FA0448FFF7B3FFBDE81040FFF756
:10270000C7BF000090000020B8000020EFF3058054
:10271000002800D001207047FFF7E2FFFEF72AFDF6
:10272000FFF7ACFCFFF708FCFFF7B4FBFFF772FB09
:10273000FFF790FBFFF72EFCFFF748FCFFF762FC6A
:10274000FFF7E6FB00F00EF8FEE7014600208429C3
:1027500000D0C81C704710B500B9012000F090FBF4
:10276000002010BD10B500F0B1FB002010BD00002E
:10277000FEB5064600200D4602900190FFF7C6FF09
:102780004FF0004498B102A8009001AB0122294605
:10279000304600F03FFD012811D1029888B10A4966
:1027A000E0080860BFF34F8FBFF36F8F09E001AB04
:1027B00001222946304600F0C7FC012801D02046FE
:1027C000FEBD0198FEBD000004ED00E07FB50D46A2
:1027D00004464169B0F9080081B1A16971B1FFF700
:1027E000B4FFD4E905128DE80700D4E900102B46A8
:1027F000226900F07EFC039004B070BDFFF7A5FFD6
:1028000003A9CDE90001208A2B4682B2D4E9001049
:1028100000F042FC012801D00020EDE70398EBE72F
:102820002DE9F041184C0F46054666692068001DE9
:1028300000F038FA38B9206890F82C100120884050
:10284000A1698143A161681C07D137B12168BDE846
:10285000F0410E48091D00F069BA20683544B542C0
:102860004560216805D2A068BDE8F041091D00F06F
:1028700045BA6068091D00F041FA206B854200D21C
:102880002563BDE8F081000018000020F00600205C
:102890002DE9F041054600F055FA2E4C2069401C08
:1028A000206120682C4F10B1E06940B32DE0256015
:1028B0002069012829D1002606EB860007EB80005D
:1028C00000F00EFA761C072EF6D323488C3000F069
:1028D00007FA2148A03000F003FA1F48B43000F096
:1028E000FFF91D48C83000F0FBF91B48DC3000F050
:1028F000F7F919488C3060601430A06005E020685A
:10290000E96AC06A884200D82560E06A401CE0623B
:10291000E96A0120A26988401043A06101EB8100AF
:1029200007EB8000291D00F001FA00F02BFAE069A6
:1029300000280CD02068E96AC06A884207D207499B
:102940004FF080500860BFF34F8FBFF36F8FBDE82B
:10295000F0810000180000201406002004ED00E0C3
:1029600010B5044690F8510058B101280CD0022847
:102970000FD0502080F31188BFF34F8FBFF36F8FBC
:10298000FEE7206B00F012FA2046BDE8104000F090
:102990000DBA10BD10484FF47051420706D0C01D4B
:1029A0000D4920F00700411AC1F570510B4A002370
:1029B0000144C2E900030839103A21F0070111600F
:1029C0004B600B600B1AC0E9001393604FF000409E
:1029D0005360D060704700000407002064000020AE
:1029E000144E154CA6F1C8074FF08058DFF84C90F4
:1029F00012E000BF00F0A6F9F068C568281D00F0DD
:102A000051F92069401E2061E068401EE06000F03E
:102A1000B9F92846FFF7A4FFE0680028EAD1386832
:102A20000128F9D9C9F80080BFF34F8FBFF36F8F2A
:102A3000F2E70000DC0600201800002004ED00E0B2
:102A40002DE9F0479A46DDE9098481466FF00303DA
:102A5000206B03EB82021044089D20F007067007EC
:102A600007D0502080F31188BFF34F8FBFF36F8FD3
:102A7000FEE723180A5C83F834200A5C12B1401C7C
:102A80001028F6D3002784F84370072D00D30625BD
:102A9000E562C4E91157201D00F02DF904F118007A
:102AA00000F029F92461C5F107006462A061E764C0
:102AB00084F8507052464946304600F0BFF8206016
:102AC000B8F1000F01D0C8F80040BDE8F087000061
:102AD00030B5114900E011460A688242FBD34B68C9
:102AE0005C18844203D14068184448600846436833
:102AF0001C18944209D1084C103C2468A24209D009
:102B000052681A4442600A6812680260814200D02A
:102B1000086030BD0460F9E76400002006484168A1
:102B2000096829B14168C968C96849680163704783
:102B30004FF0FF31FAE70000180000200848406815
:102B4000401C4FF0500080F3118804D0BFF34F8F2A
:102B5000BFF36F8FFEE7BFF34F8FBFF36F8FFEE7BB
:102B60006C0000202DE9F0410546002700F0E4F953
:102B7000314E306808B9FFF70DFFF06805424BD1C0
:102B8000C5B3083568070ED005F00700C0F108008E
:102B90000544680707D0502080F31188BFF34F8F9A
:102BA000BFF36F8FFEE72DB37068854234D822489B
:102BB000103001460C6801E020460C466168A942CD
:102BC00002D221680029F7D131688C4224D00768ED
:102BD0002168016060680837411B10290FD960190E
:102BE000420708D0502080F31188BFF34F8FBFF306
:102BF0006F8FFEE710E041606560FFF769FF616875
:102C00007068401A7060B268904200D2B060F0689C
:102C100001430020C4E9000100F0D8FB780707D089
:102C2000502080F31188BFF34F8FBFF36F8FFEE703
:102C30003846BDE8F08100005400002010B5031FA5
:102C40004FF080741C601B1F21F001011960191FD7
:102C5000044B0B6014390A60091F6FF002024438FC
:102C60000A6010BD3D2B000870B5044690F83A008C
:102C70000D46202801D0022070BD8DB182B1A28501
:102C80000020E063216813462A46091D606BFEF7A9
:102C900067F92068416941F040014161002070BD41
:102CA000012070BDD0E9013201699A60D0E90123A9
:102CB0005A604A68824201D182684A6000220261F9
:102CC0000868401E0860086870470000034B0360F6
:102CD00003F154000860802010607047E00000207D
:102CE00000F108014FF0FF32C0E90112C16001613B
:102CF00000210160704700210161704730B50B6809
:102D00005A1C02D000F1080202E0026904E02246E7
:102D1000546825689D42FAD953684B6099608A606F
:102D2000516008610168491C016030BD42684A6019
:102D300093688B6093685960916008610168491CD1
:102D400001607047502080F31188BFF34F8FBFF3AD
:102D50006F8F0A494868401C486001280CD1084818
:102D6000006810F0FF0F07D0502080F31188BFF3E8
:102D70004F8FBFF36F8FFEE7704700006C0000209D
:102D800004ED00E00849486828B1401E486001D1C0
:102D900080F311887047502080F31188BFF34F8F64
:102DA000BFF36F8FFEE700006C00002070B50028B5
:102DB00027D0144DA0F108046168E868014207D1EA
:102DC000502080F31188BFF34F8FBFF36F8FFEE762
:102DD00022683AB1502080F31188BFF34F8FBFF3C0
:102DE0006F8FFEE78143616000F0A6F86068696854
:102DF000084468602046FFF76BFEBDE8704000F0B5
:102E0000E5BA70BD540000204FF0E02000210161C0
:102E1000816105494FF47A720968B1FBF2F1491EEC
:102E200041610721016170471400002010B5FDF7D2
:102E300011FA114910280ED300F1E02090F8F003A8
:102E40000A78904207D2502080F31188BFF34F8F49
:102E5000BFF36F8FFEE709480068896800F4E060FF
:102E6000884207D9502080F31188BFF34F8FBFF3FA
:102E70006F8FFEE710BD00006C0000200CED00E03D
:102E800010B5020014D00F48806B38B1502080F389
:102E90001188BFF34F8FBFF36F8FFEE700F04CF840
:102EA00000211046FFF7BCFC00F090FA002807D183
:102EB00005494FF080500860BFF34F8FBFF36F8F0D
:102EC00010BD00001800002004ED00E010B586B031
:102ED0000024039405AA04A903A80494FFF7F6FEAE
:102EE000DDE903010094CDE9011000230EA1104893
:102EF000059A00F0FEF80F490028486311D05020D1
:102F000080F31188BFF34F8FBFF36F8F4FF0FF3007
:102F100008630120C8614C6106B0BDE8104000F0B4
:102F200041B806B010BD000049444C450000000007
:102F3000E1290008180000200248816B491C8163C8
:102F400070470000180000201448816B11B1012166
:102F500041627047002141628169B1FA81F1C1F19A
:102F60001F0101EB81020E4951F822306BB101EBD8
:102F7000820101F108034A6852684A609A4201D10D
:102F800052684A60D16801607047502080F3118810
:102F9000BFF34F8FBFF36F8FFEE7000018000020D4
:102FA000140600201CB537480168374A914207D102
:102FB000502080F31188BFF34F8FBFF36F8FFEE770
:102FC00000683149491E884207D1502080F311889A
:102FD000BFF34F8FBFF36F8FFEE72C490878019046
:102FE000FF20087008788DF800009DF800009DF81B
:102FF000002000F0F000904207D0502080F31188AC
:10300000BFF34F8FBFF36F8FFEE79DF80000204B9B
:1030100000F0500018700720986005E09DF800202F
:1030200052008DF80020401E9DF800201206F5D4B5
:103030009860032807D0502080F31188BFF34F8F8A
:10304000BFF36F8FFEE74FF44070986001980870EF
:103050000C482030016841F470010160016841F0C2
:1030600070410160FFF7D0FE00205860FDF7BAF80C
:103070000848016841F040410160FDF79FF80020D9
:103080001CBD000000ED00E071C20F4100E400E053
:103090006C00002034EF00E02DE9FF5F8346DDE99E
:1030A0000E87994616468A469000FFF75BFD05009D
:1030B0001CD05420FFF756FD040014D000202563D7
:1030C00084F85100CDE90240CDE900874B463246F5
:1030D00051465846FFF7B4FC2046FFF7D9FB0120C4
:1030E00004B0BDE8F09F2846FFF760FE4FF0FF30C8
:1030F000F6E7F0B585B0DDE90B640A9DA6B1DCB159
:10310000542700972663022684F85160002604AFF6
:10311000CDE90246CDE90057FFF792FC2046FFF7C4
:10312000B7FB049805B0F0BD502080F31188BFF3C1
:103130004F8FBFF36F8FFEE7502080F31188BFF3EE
:103140004F8FBFF36F8FFEE72DE9F0411F4690468A
:103150000D46012690B10446FFF7F4FD0FB1E06C77
:10316000386094F85000022184F85010B8F1050F2F
:1031700016D2DFE808F0150B0E141200502080F371
:103180001188BFF34F8FBFF36F8FFEE7E16C2943C8
:1031900001E0E16C491CE16402E0022803D0E5642F
:1031A000012802D02AE0002628E0201DFFF77AFD42
:1031B000154DE06A0121AA6981401143A9611349B3
:1031C00000EB800001EB8000211DFFF7AFFDA06A3E
:1031D00038B1502080F31188BFF34F8FBFF36F8F4A
:1031E000FEE7E06A2968C96A884207D908494FF0B2
:1031F00080500860BFF34F8FBFF36F8FFFF7C2FDA2
:103200003046BDE8F08100001800002014060020C0
:1032100004ED00E02DE9F0471F46DDF820909246CE
:103220000D4604004FF001081AD0FFF7FFFD5020B3
:10323000EFF3118680F31188BFF34F8FBFF36F8FC9
:103240000FB1E06C386094F85000022184F85010FF
:10325000BAF1050F16D2DFE80AF0150B0E141200B2
:10326000502080F31188BFF34F8FBFF36F8FFEE7BD
:10327000E16C294301E0E16C491CE16402E00228B1
:1032800003D0E564012803D033E04FF0000830E0BC
:10329000A06A38B1502080F31188BFF34F8FBFF37D
:1032A0006F8FFEE7154DA86B012780B1144804F11C
:1032B000180100BFFFF73AFDE06A2968C96A884231
:1032C00017D9B9F1000F13D0C9F8007011E0201D13
:1032D000FFF7E8FCE16AAA6907FA01F01043A86168
:1032E00001EB81000649B43901EB8000211DE1E7C3
:1032F0006F6286F311884046BDE8F0871800002011
:10330000C80600202DE9F0412E4C0027A06B40B1EB
:10331000206A401C2062606A00B101273846BDE87F
:10332000F0816669761C666113D16068006838B107
:10333000502080F31188BFF34F8FBFF36F8FFEE7EC
:103340006068A1686160A060A06A401CA062FFF78D
:10335000E5FB206BDFF87080864209D36068006867
:1033600080B16068C068C568686886420DD2206315
:103370002068C06A00EB800158F821000128CAD9F2
:103380000127C8E74FF0FF30F1E7281DFFF78AFC5F
:10339000A86A18B105F11800FFF784FCE86A01215A
:1033A000A26981401143A16100EB800108EB81001B
:1033B000291DFFF7BBFCE86A2168C96A8842CDD3A2
:1033C0000127CBE718000020140600202DE9F04764
:1033D0002C4D00242746A86B38B1FFF7B3FCA86B2F
:1033E000401EA863A86B40B146E0502080F31188CE
:1033F000BFF34F8FBFF36F8FFEE72969224E012085
:10340000D1B3A6F1B40980463068E8B1F068C46869
:1034100004F11800FFF746FC201DFFF743FCE06AAB
:10342000AA6908FA00F11143A96100EB800109EBD8
:103430008100211DFFF77AFCE06A2968C96A884289
:10344000E2D3C5F82480DFE70CB1FFF767FB2C6AF5
:1034500044B14646FFF756FF00B16E62641EF9D1D3
:1034600000202862686A38B10849012738070860D7
:10347000BFF34F8FBFF36F8FFFF784FC3846BDE873
:10348000F087000018000020C806002004ED00E0CE
:10349000CC340008492000080000000000000000B3
:1034A0008000000000000000000000000006101670
:1034B00000061016000000000000000001020304D6
:1034C0000607080900000000010203046465666144
:1034D000756C745461736B00F834000800000020B0
:1034E0009000000042260008883500089000002067
:1034F00010480000522600080000000000000000F4
:103500000100000010000000000000000024F40092
:1035100000000000000000000000000000000000AB
:10352000000000000000000000000000000000009B
:10353000000000000000000000000000000000008B
:10354000000000000000000000000000000000007B
:10355000000000000000000000000000000000006B
:103560000000000000000000AAAAAAAA00000000B3
:10357000000000000000000000000000000000004B
:08358000000000000000000043
:040000050800018965
:00000001FF
